:030000000209B042
:0C09B000787FE4F6D8FD7581790209F724
:100CA500D3EF9400EE6480948040147DF97C00EDD0
:0F0CB5001D70011CED4C70F7EF1F70E41E80E105
:010CC400220D
:040C800002780000F6
:06000E008B278A288929D6
:100014003097030200A77F0A7E00120CA5309703D5
:100024000200A70579E579700205783097FDE57936
:1000340064014578700CC28C7FCB120CFF7F0F12C9
:100044000CFFE5796402457870057FC8120CFFE562
:10005400796403457870057FC5120CFFE579640463
:10006400457870057F8F120CFFE57964054578703B
:10007400057F89120CFFE5796406457870057F8653
:10008400120CFFE5796407457870057F83120CFF35
:10009400E57964084578700BF578F5797F0C120CD6
:1000A400FFD28C3094030202577F0A7E00120CA503
:1000B4003094030202573094FDE57860030202573E
:1000C400E57914B4070040030202579000DD75F08F
:1000D40003A4C58325F0C583730200F20201120252
:1000E400014702017C0201B20201E702021CAB39A2
:1000F400AA3AA93BE4F5F0120867AB39AA3AA93B3E
:10010400120804FFAEF0120C147FCB020254AB367B
:10011400AA37A938E475F00112082FAB36AA37A91B
:1001240038120804643C45F07005F5F0120867AB1A
:1001340036AA37A938120804FFAEF0120BD07FC8D4
:10014400020254AB33AA34A935E475F00112082F26
:10015400AB33AA34A935120804641845F07005F5C8
:10016400F0120867AB33AA34A935120804FFAEF0C5
:10017400120B8C7FC5020254AB30AA31A932E4754C
:10018400F00112082FAB30AA31A932120804640816
:1001940045F0700675F001120867AB30AA31A93238
:1001A400120804FFAEF0120ABF7F8F020254AB2D77
:1001B400AA2EA92FE475F00112082FAB2DAA2EA99F
:1001C4002F120804641E45F0700675F001120867CA
:1001D400AB2DAA2EA92F120804FFAEF0120B487FF4
:1001E40089806DAB2AAA2BA92CE475F00112082F83
:1001F400AB2AAA2BA92C120804640D45F0700675CD
:10020400F001120867AB2AAA2BA92C120804FFAE2E
:10021400F0120B047F868038AB27AA28A929E4753D
:10022400F00112082FAB27AA28A929120804FFAE4F
:10023400F0BE070BBFE508740775F0D0120867AB72
:1002440027AA28A929120804FFAEF0120A3C7F83CA
:10025400120CFF30960302040C7F0A7E00120CA5D8
:1002640030960302040C3096FDE578600302040C1A
:10027400E57914B40700400302040C90028D75F074
:1002840003A4C58325F0C583730202A20202C2023D
:1002940002FC02033602036A02039E0203D1AB3955
:1002A400AA3AA93BE4F5F0120867AB39AA3AA93B8C
:1002B400120804FFAEF0120C147FCB020409AB3613
:1002C400AA37A93874FFF5F012082FAB36AA37A95C
:1002D40038120804FFAEF0BEFF0ABFFF07E475F052
:1002E4003B120867AB36AA37A938120804FFAEF0F0
:1002F400120BD07FC8020409AB33AA34A93574FFAA
:10030400F5F012082FAB33AA34A935120804FFAE56
:10031400F0BEFF0ABFFF07E475F017120867AB339E
:10032400AA34A935120804FFAEF0120B8C7FC50263
:100334000409AB30AA31A93274FFF5F012082FABCF
:1003440030AA31A93212080445F0700675F007127C
:100354000867AB30AA31A932120804FFAEF0120AC2
:10036400BF7F8F020409AB2DAA2EA92F74FFF5F0CD
:1003740012082FAB2DAA2EA92F12080445F07007DE
:10038400F52DF52E752F1EAB2DAA2EA92F120804BC
:10039400FFAEF0120B487F89806BAB2AAA2BA92CE5
:1003A40074FFF5F012082FAB2AAA2BA92C1208040B
:1003B40045F0700675F00C120867AB2AAA2BA92C1D
:1003C400120804FFAEF0120B047F868038AB27AA14
:1003D40028A92974FFF5F012082FAB27AA28A92908
:1003E400120804FFAEF0BE070BBFCF08740775F008
:1003F400E4120867AB27AA28A929120804FFAEF063
:08040400120A3C7F83120CFF79
:01040C0022CD
:100CFF00C2A78F807F017E00120CA5D2A67F017E36
:070D0F0000120CA5C2A62290
:100D1600D2A78F807F017E00120CA5D2A67F017E0E
:070D260000120CA5C2A62279
:100CC500C2A5C2A67F38120CFF7F0C120CFF7F064F
:0D0CD500120CFF7F01120CFF7F80020CFF4C
:100CE20068747470733A2F2F6769746875622E6323
:0D0CF2006F6D2F7A656E67796F6E676661B2
:100C840002760000027007DE026C00080272000A9D
:100C9400026E000102740009026A0000026800008A
:10040D00780A7C007D007BFF7A0C79E27E007F1DEF
:10041D001207A8758911758C3C758AAFD2AFD2A918
:10042D00D28C120CC5856E2D856F2E85742F85751A
:10043D0030856A31856B32856833856934AB73AA33
:10044D0072AD6DAC6CAF71AE701208F1D3E57794EF
:10045D0013E5769400400D0569E56970020568E4C1
:10046D00F576F5773095030205C97F0A7E00120CEB
:10047D00A53095030205C93095FD7F80120CFFE470
:10048D00F508F509740A2509F8E6FF120D16050998
:10049D00E50970020508C39410E508940040E57F56
:1004AD00C0120CFF750800750910740A2509F8E6CD
:1004BD00FF120D160509E50970020508C3941DE527
:1004CD0008940040E57508007509027F017E00D390
:1004DD00E5779413E5769400400D0569E5697002A2
:1004ED000568E4F576F577D3E569943BE568940006
:1004FD00400DE4F568F569056BE56B7002056AD38F
:10050D00E56B943BE56A9400400DE4F56AF56B05E7
:10051D0075E57570020574D3E5759417E57494004F
:10052D004015E4F574F575056FE56F7002056E0500
:10053D0073E57370020572D3E56F9407E56E940051
:10054D004006756E00756F01D3E573941FE57294C7
:10055D0000400E757200757301056DE56D70020535
:10056D006CD3E56D940CE56C9400400E756C0075C4
:10057D006D010571E57170020570EF1F70011EEFC1
:10058D004E60030204DC0509E50970020508450803
:10059D0060030204D8856E2D856F2E85742F8575A9
:1005AD0030856A31856B32856833856934AB73AAC2
:1005BD0072AD6DAC6CAF71AE701208F1752A00752D
:1005CD002B00752C6C752D00752E00752F727530E6
:1005DD000075310075326E753300753400753574E4
:1005ED0075360075370075386A753900753A0075BE
:1005FD003B687B007A00797012000ED3E569943B5D
:10060D00E5689400400DE4F568F569056BE56B70E0
:10061D0002056AD3E56B943BE56A9400400DE4F561
:10062D006AF56B0575E57570020574D3E57594175C
:10063D00E57494004015E4F574F575056FE56F707C
:10064D0002056E0573E57370020572D3E56F9407AD
:10065D00E56E94004006756E00756F01D3E57394D9
:10066D001FE5729400400E757200757301056DE5FE
:10067D006D7002056CD3E56D940CE56C9400400E25
:10068D00756C00756D010571E57170020570E5778A
:10069D0045766003020459AF71AE70120A3CAF6D1E
:1006AD00AE6C120B04AF73AE72120B48AF6FAE6E21
:1006BD00120ABFAF75AE74120B8CAF6BAE6A120B14
:0B06CD00D0AF69AE68120C1402045993
:03000B00020D2DB6
:100D2D00C0E0758C3C758AAF0577E5777002057666
:030D3D00D0E032D1
:100C580077726F6E674D6F6E646154756573645714
:100C680065646E6554687572734672696461536130
:080C780074757253756E64611E
:040A3C00AB07AA0654
:100A40007C007D0A1207CEED2430F543E43CF542EC
:100A50007C007D64AF03AE021207CE7E007F0ACF1A
:100A6000CDCFCECCCE1207CEEF2430F541E43EF50B
:100A7000407C037DE8AF03AE021207CE7E007F64A8
:100A8000CFCDCFCECCCE1207CEEF2430F53FE43E13
:100A9000F53EAE02AF037C037DE81207CEEF2430B3
:100AA000F53DE43EF53C7F80120CFFAF3D120D1684
:0F0AB000AF3F120D16AF41120D16AF43020D16D8
:040B0400AB07AA068B
:100B08007C007D0A1207CEED2430F53FE43CF53E2B
:100B1800AE02AF037C007D641207CE7E007F0ACF51
:100B2800CDCFCECCCE1207CEEF2430F53DE43EF546
:100B38003C7F85120CFFAF3D120D16AF3F020D161C
:040B4800AB07AA0647
:100B4C007C007D0A1207CEED2430F53FE43CF53EE7
:100B5C00AE02AF037C007D641207CE7E007F0ACF0D
:100B6C00CDCFCECCCE1207CEEF2430F53DE43EF502
:100B7C003C7F88120CFFAF3D120D16AF3F020D16D5
:040ABF008E3C8F3D9D
:100AC300783E7C007D007BFF7A0C79587E007F287E
:100AD3001207A87F8B120CFFE4F566F567E53D75F9
:100AE300F005A4243E2567F8E6FF120D160567E519
:100AF3006770020566C39405E5666480948040DDF3
:010B030022CF
:040B8C00AB07AA0603
:100B90007C007D0A1207CEED2430F53FE43CF53EA3
:100BA000AE02AF037C007D641207CE7E007F0ACFC9
:100BB000CDCFCECCCE1207CEEF2430F53DE43EF5BE
:100BC0003C7FC4120CFFAF3D120D16AF3F020D1655
:040BD000AB07AA06BF
:100BD4007C007D0A1207CEED2430F53FE43CF53E5F
:100BE400AE02AF037C007D641207CE7E007F0ACF85
:100BF400CDCFCECCCE1207CEEF2430F53DE43EF57A
:100C04003C7FC7120CFFAF3D120D16AF3F020D160D
:040C1400AB07AA067A
:100C18007C007D0A1207CEED2430F53FE43CF53E1A
:100C2800AE02AF037C007D641207CE7E007F0ACF40
:100C3800CDCFCECCCE1207CEEF2430F53DE43EF535
:100C48003C7FCA120CFFAF3D120D16AF3F020D16C6
:1008F1008E278F288C298D2A8A2B8B2C7F84120C92
:10090100FF7F2F120D167F87120CFF7F2F120D16FE
:100911007F8A120CFF7F20120D167FC0120CFF7F01
:1009210020120D167FC1120CFF7F20120D167FC2FF
:10093100120CFF7F20120D167FC3120CFF7F2012B5
:100941000D167FC6120CFF7F3A120D167FC9120CCD
:10095100FF7F3A120D167FCC120CFF7F20120D166D
:100961007FCD120CFF7F20120D167FCE120CFF7F60
:1009710020120D167FCF120CFF7F20120D16AF280B
:10098100AE27120A3CAF2AAE29120B04AF2CAE2BB4
:10099100120B48AF2EAE2D120ABFAF30AE2F120B85
:0F09A1008CAF32AE31120BD0AF34AE33020C1428
:1009BC0002040DE493A3F8E493A34003F68001F240
:1009CC0008DFF48029E493A3F85407240CC8C3333C
:1009DC00C4540F4420C8834004F456800146F6DF0B
:1009EC00E4800B0102040810204080900C80E47E0F
:1009FC00019360BCA3FF543F30E509541FFEE49300
:100A0C00A360010ECF54C025E060A840B8E493A3C6
:100A1C00FAE493A3F8E493A3C8C582C8CAC583CAF1
:100A2C00F0A3C8C582C8CAC583CADFE9DEE780BEA9
:010CA400004F
:1006D800E709F608DFFA8046E709F208DFFA803E04
:1006E80088828C83E709F0A3DFFA8032E309F608F1
:1006F800DFFA8078E309F208DFFA807088828C8359
:10070800E309F0A3DFFA806489828A83E0A3F6080C
:10071800DFFA805889828A83E0A3F208DFFA804CE6
:1007280080D280FA80C680D4806980F280338010BD
:1007380080A680EA809A80A880DA80E280CA803326
:1007480089828A83ECFAE493A3C8C582C8CCC5839E
:10075800CCF0A3C8C582C8CCC583CCDFE9DEE7806E
:100768000D89828A83E493A3F608DFF9ECFAA9F0ED
:10077800EDFB2289828A83ECFAE0A3C8C582C8CC43
:10078800C583CCF0A3C8C582C8CCC583CCDFEADE5C
:10079800E880DB89828A83E493A3F208DFF980CCBE
:1007A80088F0EF60010E4E60C388F0ED2402B404B7
:1007B8000050B9F582EB2402B4040050AF2323455E
:0607C80082239007287354
:1007CE00C2D5EC30E709B2D5E4C39DFDE49CFCEE46
:1007DE0030E715B2D5E4C39FFFE49EFE120886C330
:1007EE00E49DFDE49CFC800312088630D507C3E42B
:0607FE009FFFE49EFE22B5
:10080400BB010A89828A83E0F5F0A3E022500687BF
:10081400F009E71922BBFE07E3F5F009E319228981
:0B082400828A83E493F5F074019322B4
:10082F00BB010789828A830208DB500B09C5F027B9
:10083F00F7C5F01937F722BBFE0D09F8E325F0F3E2
:10084F00C5F019E338F322F889828A83740193255E
:08085F00F0C5F0F8E493382223
:10086700BB010A89828A83F0E5F0A3F0225006F7DC
:0F08770009A7F01922BBFE06F3E5F009F31922D9
:10088600BC000BBE0029EF8DF084FFADF022E4CC56
:10089600F875F008EF2FFFEE33FEEC33FCEE9DEC1F
:1008A600984005FCEE9DFE0FD5F0E9E4CEFD22ED65
:1008B600F8F5F0EE8420D21CFEADF075F008EF2FAF
:1008C600FFED33FD4007985006D5F0F222C398FDA0
:0508D6000FD5F0EA223D
:1008DB00C5F0F8A3E028F0C5F0F8E58215827002A8
:0608EB001583E038F02245
:00000001FF
